{
  "contractName": "calledContract",
  "abi": [
    {
      "anonymous": false,
      "inputs": [
        {
          "indexed": false,
          "name": "sender",
          "type": "address"
        },
        {
          "indexed": false,
          "name": "origin",
          "type": "address"
        },
        {
          "indexed": false,
          "name": "from",
          "type": "address"
        }
      ],
      "name": "callEvent",
      "type": "event"
    },
    {
      "constant": false,
      "inputs": [],
      "name": "calledFunction",
      "outputs": [],
      "payable": false,
      "stateMutability": "nonpayable",
      "type": "function"
    }
  ],
  "bytecode": "0x6080604052348015600f57600080fd5b506101568061001f6000396000f300608060405260043610610041576000357c0100000000000000000000000000000000000000000000000000000000900463ffffffff1680630d8ea18014610046575b600080fd5b34801561005257600080fd5b5061005b61005d565b005b7fc90ed2a0abbce0ddd0cfd1fd303f15bf1a3860b32002dc1ed37873ea88948830333230604051808473ffffffffffffffffffffffffffffffffffffffff1673ffffffffffffffffffffffffffffffffffffffff1681526020018373ffffffffffffffffffffffffffffffffffffffff1673ffffffffffffffffffffffffffffffffffffffff1681526020018273ffffffffffffffffffffffffffffffffffffffff1673ffffffffffffffffffffffffffffffffffffffff168152602001935050505060405180910390a15600a165627a7a72305820e160cd10d3f48d94b4819de047f11c491417ffcc188293c51098fe3a5654474b0029",
  "source": "pragma solidity ^0.4.22;\n\ncontract calledContract {\n    event callEvent(address sender, address origin, address from);\n    function calledFunction() public {\n        emit callEvent(msg.sender, tx.origin, this);\n    }\n}\n\n\nlibrary calledLibrary {\n    event callEvent(address sender, address origin,  address from);\n    function calledFunction() public {\n        emit callEvent(msg.sender, tx.origin, this);\n    }\n}\n\n\n// 疑问：记得在METoken这个合约中需要使用openZeppelin的ERC20代码，里面包含了一些库和一些类。但是在部署阶段，只部署了METoken合约。\ncontract caller {\n    // 这一步非常奇怪。这里明明传入的calledContract的一个实例。但是在truffle console进行调用的时候传入的却是calledContract的地址。而且，传入实例会报错。\n    function make_calls(calledContract _calledContract) public {\n\n    // Calling calledContract and calledLibrary directly\n    _calledContract.calledFunction(); // 传入的是calledContract合约实例，通过实例调用合约函数\n    calledLibrary.calledFunction(); // 直接把library当做一个命名空间\n\n    // Low-level calls using the address object for calledContract\n    require(address(_calledContract).\n            call(bytes4(keccak256(\"calledFunction()\"))));\n    require(address(_calledContract).\n            delegatecall(bytes4(keccak256(\"calledFunction()\"))));\n\n\n\n\t}\n}\n",
  "sourcePath": "/Users/jinrirencai/Desktop/ico/CallExamples/project/contracts/CallExamples.sol",
  "compiler": {
    "name": "solc",
    "version": "0.4.26+commit.4563c3fc.Emscripten.clang"
  },
  "schemaVersion": "3.4.11",
  "updatedAt": "2023-02-24T10:43:38.554Z",
  "networkType": "ethereum",
  "devdoc": {
    "methods": {}
  },
  "userdoc": {
    "methods": {}
  }
}