{
  "contractName": "calledContract",
  "abi": [
    {
      "anonymous": false,
      "inputs": [
        {
          "indexed": false,
          "name": "sender",
          "type": "address"
        },
        {
          "indexed": false,
          "name": "origin",
          "type": "address"
        },
        {
          "indexed": false,
          "name": "from",
          "type": "address"
        }
      ],
      "name": "callEvent",
      "type": "event"
    },
    {
      "constant": false,
      "inputs": [],
      "name": "calledFunction",
      "outputs": [],
      "payable": false,
      "stateMutability": "nonpayable",
      "type": "function"
    }
  ],
  "bytecode": "0x6080604052348015600f57600080fd5b506101568061001f6000396000f300608060405260043610610041576000357c0100000000000000000000000000000000000000000000000000000000900463ffffffff1680630d8ea18014610046575b600080fd5b34801561005257600080fd5b5061005b61005d565b005b7fc90ed2a0abbce0ddd0cfd1fd303f15bf1a3860b32002dc1ed37873ea88948830333230604051808473ffffffffffffffffffffffffffffffffffffffff1673ffffffffffffffffffffffffffffffffffffffff1681526020018373ffffffffffffffffffffffffffffffffffffffff1673ffffffffffffffffffffffffffffffffffffffff1681526020018273ffffffffffffffffffffffffffffffffffffffff1673ffffffffffffffffffffffffffffffffffffffff168152602001935050505060405180910390a15600a165627a7a7230582079feb6879113d63e875cf6849895d865c9b73062c08c7941c5a1dd6a916527720029",
  "source": "pragma solidity ^0.4.22;\n\ncontract calledContract {\n    event callEvent(address sender, address origin, address from);\n    function calledFunction() public {\n        emit callEvent(msg.sender, tx.origin, this);\n    }\n}\n\nlibrary calledLibrary {\n    event callEvent(address sender, address origin,  address from);\n    function calledFunction() public {\n        emit callEvent(msg.sender, tx.origin, this);\n    }\n}\n\ncontract caller {\n\n    function make_calls(calledContract _calledContract) public {\n\n    // Calling calledContract and calledLibrary directly\n    _calledContract.calledFunction();\n    calledLibrary.calledFunction();\n\n    // Low-level calls using the address object for calledContract\n    require(address(_calledContract).\n            call(bytes4(keccak256(\"calledFunction()\"))));\n    require(address(_calledContract).\n            delegatecall(bytes4(keccak256(\"calledFunction()\"))));\n\n\n\n\t}\n}\n",
  "sourcePath": "/Users/jinrirencai/Desktop/ico/CallExamples/project/contracts/CallExamples.sol",
  "compiler": {
    "name": "solc",
    "version": "0.4.26+commit.4563c3fc.Emscripten.clang"
  },
  "schemaVersion": "3.4.11",
  "updatedAt": "2023-02-24T10:07:03.363Z",
  "networkType": "ethereum",
  "devdoc": {
    "methods": {}
  },
  "userdoc": {
    "methods": {}
  }
}